:100000000C94D4000C94FC000C94FC000C94FC00A8
:100010000C94FC000C94FC000C94FC000C94FC0070
:100020000C94FC000C94FC000C94A8030C94170492
:100030000C94FC000C94FC000C94FC000C94FC0050
:100040000C94FC000C94FC000C94FC000C94FC0040
:100050000C94FC000C94FC000C94FC000C945E03CB
:100060000C94FC000C94FC000C94FC000C94FC0020
:100070000C94FC000C94FC000C94FC000C94FC0010
:100080000C94FC000C94FC000C94FC000C94FC0000
:100090000C94FC000C94FC000C94FC000C94FC00F0
:1000A0000C94FC000C94FC000C94FC00080B000267
:1000B0000202000009040000010202000005240001
:1000C0001001052401010104240206052406000193
:1000D0000705810310004009040100020A00000026
:1000E00007050202400000070583024000000403E8
:1000F000090412010002EF02014041233780000190
:100100000102030141726475696E6F204C4C43001B
:1001100041726475696E6F204D6963726F000000F3
:100120000000250028002B002E00310000000000F8
:10013000240027002A002D003000000000002300CA
:10014000260029002C002F000404040404030405E5
:100150000202020204030202020206060606060664
:10016000040402020204040408020110408040104A
:1001700020408040800802040180402010020110CD
:100180008010204040200000000200090F00000302
:100190000401000C0000000000000000000000004E
:1001A000000000000000030811241FBECFEFDAE0BA
:1001B000DEBFCDBF11E0A0E0B1E0E4E8F0E102C0B5
:1001C00005900D92AA34B107D9F721E0AAE4B1E075
:1001D00001C01D92AF3BB207E1F710E0C4EDD0E0E3
:1001E00004C02197FE010E943A08C33DD107C9F718
:1001F0000E9449060C9440080C940000FC01809178
:100200006E01882311F13FB7F89482E08093E900F2
:100210002091F200822F90E01816190614F481E064
:1002200090E0882339F0289A44E640936D0140918C
:10023000F1004083222339F02091F200211103C004
:100240002BE62093E8003FBF08958FEF9FEF0895BE
:100250002FB7F89483E08093E9009091E800892F0C
:10026000807295FF04C09091F20080E4891B2FBF3B
:1002700008958091650181110DC082E08093610134
:1002800084E080936201109264011092630181E026
:100290008093650181E691E008953FB7F8948091DD
:1002A0005D0190915E01A0915F01B091600126B562
:1002B000A89B05C02F3F19F00196A11DB11D3FBF9E
:1002C000BA2FA92F982F8827BC01CD01620F711D6D
:1002D000811D911D42E0660F771F881F991F4A9567
:1002E000D1F70895CF92DF92EF92FF920E944D01D5
:1002F0006B017C010E944D016C197D098E099F09DB
:10030000683E734081059105A8F3FF90EF90DF9060
:10031000CF90089540914C0150914D0120914A0198
:1003200030914B0142175307B4F49091E800957057
:10033000E1F39091E80092FD19C08093F100809163
:100340004C0190914D0101968F739927892B19F4D7
:100350008EEF8093E80080914C0190914D010196C1
:1003600090934D0180934C0181E0089580E00895C1
:10037000EF92FF920F931F93CF93DF93F82E192FD5
:10038000E62E042F81E0860F880F0E948A0183E009
:100390000E948A01CF2DD12FEC0EFD2EF11CCE151F
:1003A000DF05B9F007FF13C0FE0184910E948A01A6
:1003B000182F80E00E948A01812321968111EFCFBE
:1003C000DF91CF911F910F91FF90EF900895888159
:1003D000EDCF81E0F5CFDF92EF92FF920F931F9365
:1003E000CF93DF93D82E8A01EB017B01E40EF51E3B
:1003F000CE15DF0559F0D7FE12C0FE0184910E9490
:100400008A0121968111F4CF0FEF1FEFC801DF9110
:10041000CF911F910F91FF90EF90DF900895888109
:10042000EECF0F931F93CF93DF931F92CDB7DEB71D
:1004300082E0898342E450E06CEA70E080E80E9448
:10044000EB010E943901DC0112960D911C910115FE
:10045000110589F0D801ED91FC910280F381E02D26
:10046000BE016F5F7F4FC801099597FD04C0F80179
:1004700000851185ECCF89810F90DF91CF911F917D
:100480000F910895615030F02091F100FC0120831C
:100490000196F8CF289A84E680936D0108958F9293
:1004A0009F92AF92BF92CF92DF92EF92FF920F9303
:1004B0001F93CF93DF936C017B018A0180910B0125
:1004C000882309F458C080916E01882309F453C031
:1004D0008091500180FF05C08091E0008260809390
:1004E000E000E801B12C8AEFA82E93E0892E2AE3E0
:1004F000922E209711F4BB20B9F10E94280181119E
:1005000006C0AA94AA20B9F10E947201F2CF8C17FA
:100510001D0611F00CF08C2F9FB7F8948092E90023
:100520002091E80025FD02C09FBFE3CF282F30E0D7
:10053000C21BD30BF701815020F041914093F10091
:10054000FACFE20EF31EBB2021F09092E800B12C0E
:10055000EBCF8091E80085FDE7CF9092E800BB24C7
:10056000B394209709F3F3CF5D9A84E680934F010B
:10057000101611063CF081E090E0F601938382832F
:1005800010E000E0C801DF91CF911F910F91FF9023
:10059000EF90DF90CF90BF90AF909F908F90089595
:1005A000CF93DF931F92CDB7DEB76983DC01ED9166
:1005B000FC910280F381E02D41E050E0BE016F5FCD
:1005C0007F4F09950F90DF91CF91089583E080933D
:1005D000E9008091F200882319F08AE38093E80013
:1005E00008950E94280190E00895CF93DF931F9211
:1005F000CDB7DEB7FC018485958597FD08C02FEF48
:100600003FEF358724870F90DF91CF910895CE017A
:1006100001960E94FE00019719F4898190E0F3CFC2
:100620008FEF9FEFF0CF0F931F93CF93DF931F9226
:10063000CDB7DEB78C01FC018485958597FF0BC093
:10064000CE0101960E94FE00019771F4898190E02D
:10065000F80195878487F801848595850F90DF914F
:10066000CF911F910F9108958FEF9FEFF1CFFC0174
:100670008485958597FD0BC09FB7F89482E08093A1
:10068000E9008091F2009FBF90E0019608959FB726
:10069000F89482E08093E9008091F2009FBF90E09F
:1006A0000895FC0101900020E9F73197AF01481B44
:1006B000590BBC018FE691E00C944F021F920F92F0
:1006C0000FB60F9211242F933F938F939F93AF9365
:1006D000BF938091590190915A01A0915B01B09113
:1006E0005C013091580123E0230F2D3758F5019616
:1006F000A11DB11D209358018093590190935A0177
:10070000A0935B01B0935C0180915D0190915E01CB
:10071000A0915F01B09160010196A11DB11D809370
:100720005D0190935E01A0935F01B0936001BF9162
:10073000AF919F918F913F912F910F900FBE0F908E
:100740001F90189526E8230F0296A11DB11DD2CF48
:100750001F920F920FB60F9211248F939F93809147
:10076000E1009091E100937F9093E10083FF0FC03F
:100770001092E90091E09093EB001092EC0092E36C
:100780009093ED0010926E0198E09093F00082FF3C
:1007900022C093E09093E9009091F200992319F020
:1007A0009AE39093E80090914F01992341F0909142
:1007B0004F01915090934F01911101C05D9890911C
:1007C0006D01992341F090916D01915090936D01CD
:1007D000911101C0289884FF18C08091E2008E7E9C
:1007E00081608093E2008091E1008F7E8093E10040
:1007F000809150018E7E8061809350019F918F91F6
:100800000F900FBE0F901F90189580FFF7CF80912B
:10081000E2008E7E80618093E2008091E1008E7E16
:100820008093E100809150018E7E8160E5CF1F9220
:100830000F920FB60F921124CF92DF92EF92FF9298
:100840000F931F932F933F934F935F936F937F93D8
:100850008F939F93AF93BF93EF93FF93CF93DF93C8
:10086000CDB7DEB76C97DEBFCDBF1092E9008091A7
:10087000E80083FF25C068E0CE0145960E94420251
:1008800082EF8093E8008D8987FF39C09091E8005E
:1008900090FFFCCF982F907609F034C19E894F8944
:1008A000588D2F89F88C911131C0803861F5809175
:1008B00051018093F1001092F1008EEF8093E800D7
:1008C0006C960FB6F894DEBF0FBECDBFDF91CF910F
:1008D000FF91EF91BF91AF919F918F917F916F9118
:1008E0005F914F913F912F911F910F91FF90EF904A
:1008F000DF90CF900F900FBE0F901F9018959EEF36
:100900009093E800C7CF1092F100D5CF913059F401
:100910008111D3CF4130510581F6809151018D7FF6
:1009200080935101CACF933049F48111C6CF413031
:10093000510519F6809151018260F2CF953041F452
:100940008091E80080FFFCCF20682093E300B5CFC2
:10095000963009F0A9C00B8D1C8D22E01092E900A1
:1009600010924D0110924C01F2122EC010924B01C8
:1009700010924A010E9411021F8299E09983FA8223
:1009800091E09E8390EA98879AEF998720914C0195
:1009900030914D01275F3F4F3C832B838D83109215
:1009A000E90010924D0110924C0110934B010093FD
:1009B0004A0149E050E0BE016F5F7F4F80E00E9436
:1009C000EB010E94110279CF10934B0100934A0171
:1009D0000E943901DC0112960D911C91011511053F
:1009E00009F451C1D801ED91FC910480F581E02D0D
:1009F000BE016B5E7F4FC8010995009709F03EC1AB
:100A0000F80100851185EACFF3E0FF120EC08F894F
:100A1000882309F440C0823061F440E86DE080E151
:100A200091E00E94B801811148CF81E28093EB00F0
:100A300047CF813029F440E86BE084E091E0F1CFCA
:100A4000833099F70E943901DC011296ED90FC90F9
:100A50008E010F5F1F4F6801E114F10479F0D70197
:100A6000ED91FC910680F781E02DB801C701099551
:100A7000080F111DF701E084F184EECFD8011C921C
:100A8000F60101900020E9F73197BF016C197D094B
:100A900040E0C601C6CF6EEE70E0FB01449150E02D
:100AA00080E80E94EB0109CF973009F4BECF98305F
:100AB00021F481E08093F10000CF993009F0FDCE60
:100AC000837009F0B2CFEFE1F1E081E031E096E32D
:100AD0002191222371F08093E9003093EB00DF0134
:100AE00011972C912093EC009093ED008F5F87304D
:100AF00079F78EE78093EA001092EA008F8980935D
:100B00006E01DBCE8B8D9C8D1092E90010924D0111
:100B100010924C0190934B0180934A01898D811171
:100B200092C08E899D89913A49F4813209F07DCF36
:100B300047E050E064E071E080E0B3CF913209F02B
:100B400074CF833269F48F89988DB0E0A0E08093F0
:100B5000000190930101A0930201B0930301ADCE77
:100B6000803269F48091E80082FFFCCF67E084E086
:100B700091E00E9442028BEF8093E8009ECE823289
:100B800009F09BCE8F8980930B01EEEFFFE78591F3
:100B900094918B3F9C4D51F1E0E0F8E0809104018D
:100BA00090910501A0910601B0910701803B94400E
:100BB000A105B105F1F480910B0180FD1AC0EE3F53
:100BC0008AE0F80789F587E797E79183808380912A
:100BD000600080934E0188E19BE00FB6F894A895E1
:100BE000809360000FBE9093600067CEEEEFFAE056
:100BF000D5CF808191818737974709F05ECEA89540
:100C00008091600088618093600080914E018093A4
:100C10006000EE3F2AE0F20789F08091FE0A909191
:100C2000FF0A9183808349CE80819181873798071D
:100C300051F29093FF0A8093FE0AC5CF1092FF0AEB
:100C40001092FE0A3ACE0E943901DC0112960D91F3
:100C50001C910115110509F4E8CED801ED91FC9124
:100C60000190F081E02DBE016B5E7F4FC8010995B8
:100C7000811123CEF80100851185EBCF18161906D6
:100C80000CF41BCED2CEF1E0FF12BECE62EF70E0CC
:100C900004CFCF93DF93CDB7DEB7A1970FB6F8940B
:100CA000DEBF0FBECDBF789484B5826084BD84B5AD
:100CB000816084BD85B5826085BD85B5816085BD57
:100CC00080916E00816080936E001092810080910F
:100CD0008100826080938100809181008160809397
:100CE00081008091800081608093800080919100DC
:100CF0008260809391008091910081608093910047
:100D0000809190008160809390008091C100846008
:100D10008093C1008091C10082608093C100809166
:100D2000C10081608093C1008091C3008160809385
:100D3000C3008091C00082608093C0008091C20097
:100D400081608093C20080917A00846080937A00F1
:100D500080917A00826080937A0080917A0081602D
:100D600080937A0080917A00806880937A00109254
:100D70006E0110925101109250018091D700816054
:100D80008093D70080EA8093D80089B5806189BDBF
:100D900089B5826089BD09B400FEFDCF0E94720151
:100DA0008091D8008F7C80618093D8008091E00092
:100DB000807F8093E0008091E1008E7E8093E1004F
:100DC0008DE08093E200559A209A5D9828988FEFE5
:100DD0009FEF90937C0180937B0159E6852E51E033
:100DE000952EF4012491EAE4F1E084918823C9F07E
:100DF00090E0880F991FFC01E45DFE4FA591B4912E
:100E0000FC01E25EFE4F459154913FB7F8949C91EE
:100E1000822F809598239C93FA0190818923808367
:100E20003FBF98E8292E91E0392E2AE0422E512C1E
:100E3000612C712C30E0A32E30E0B32EF10124910F
:100E4000F4019491EAE4F1E08491882309F4BDC0AF
:100E50002223E9F021502F30D0F4E22FF0E0ED5CB6
:100E6000F84F0C943A08C007C4074207B807BC07FC
:100E7000470747074707C707CD07D107D507DB0750
:100E80004707DF07209180002F7720938000E82F0D
:100E9000F0E0EE0FFF1FE65CFE4FA591B4918C9140
:100EA000982331E020E009F430E0832F922F9093D3
:100EB0005701809356012091540130915501281714
:100EC000390709F446C0019709F098C00091520112
:100ED000109153010F5F1F4F109353010093520164
:100EE00085E291E00E94510388E291E00E94510363
:100EF0008BE291E00E9451036801110FEE08FF0898
:100F0000F7FE66C06DE28FE691E00E94D0022227D4
:100F10003327A9012C193D094E095F0919A2CE01F9
:100F200081967C01CA01B901A30192010E941808AF
:100F3000605DF70162937F0121153105410551057F
:100F400089F7C701EF2809F05BC088E291E00E94B1
:100F500051038091560190915701909355018093D0
:100F60005401A114B10409F469CF0E94000066CFB6
:100F7000209180002F7D89CF20918000277F85CF11
:100F800024B52F7724BD83CF24B52F7DFBCF2091AF
:100F900090002F77209390007ACF209190002F7DA2
:100FA000F9CF20919000277FF5CF2091C0002F77B7
:100FB0002093C0006CCF2091C0002F7DF9CF2091ED
:100FC000C200277F2093C20062CF90E080E06FCF05
:100FD000A701960119A2CE0181967C01CA01B9012F
:100FE000A30192010E941808605DF70162937F01DE
:100FF000211531054105510589F7A3CF85E491E01D
:101000000E945103A2CFEFE6F1E01382128288EE34
:1010100093E0A0E0B0E084839583A683B78380E16A
:1010200091E0918380838FEF9FEF95878487089568
:10103000A1E21A2EAA1BBB1BFD010DC0AA1FBB1FDC
:10104000EE1FFF1FA217B307E407F50720F0A21B4E
:10105000B30BE40BF50B661F771F881F991F1A94BB
:1010600069F760957095809590959B01AC01BD01E5
:10107000CF010895EE0FFF1F0590F491E02D099424
:04108000F894FFCF12
:10108400FFFFFFFF00E1000000000000000000007F
:10109400D0024F02F102E6023703F502130300C146
:1010A40080810000006F6E000D0A006E756D626530
:1010B40072206F6620627574746F6E207075736829
:0A10C40065733A20006F66660000B5
:00000001FF
