:100000000C94D4000C94FC000C94FC000C94FC00A8
:100010000C94FC000C94FC000C94FC000C94FC0070
:100020000C94FC000C94FC000C940D040C947C04C7
:100030000C94FC000C94FC000C94FC000C94FC0050
:100040000C94FC000C94FC000C94FC000C94FC0040
:100050000C94FC000C94FC000C94FC000C94C30366
:100060000C94FC000C94FC000C94FC000C94FC0020
:100070000C94FC000C94FC000C94FC000C94FC0010
:100080000C94FC000C94FC000C94FC000C94FC0000
:100090000C94FC000C94FC000C94FC000C94FC00F0
:1000A0000C94FC000C94FC000C94FC00080B000267
:1000B0000202000009040000010202000005240001
:1000C0001001052401010104240206052406000193
:1000D0000705810310004009040100020A00000026
:1000E00007050202400000070583024000000403E8
:1000F000090412010002EF02014041233780000190
:100100000102030141726475696E6F204C4C43001B
:1001100041726475696E6F204D6963726F000000F3
:100120000000250028002B002E00310000000000F8
:10013000240027002A002D003000000000002300CA
:10014000260029002C002F000404040404030405E5
:100150000202020204030202020206060606060664
:10016000040402020204040408020110408040104A
:1001700020408040800802040180402010020110CD
:100180008010204040200000000200090F00000302
:100190000401000C0000000000000000000000004E
:1001A000000000000000480811241FBECFEFDAE075
:1001B000DEBFCDBF11E0A0E0B1E0EEE0F1E102C0B2
:1001C00005900D92AC34B107D9F721E0ACE4B1E071
:1001D00001C01D92AF3DB207E1F710E0C4EDD0E0E1
:1001E00004C02197FE010E947F08C33DD107C9F7D3
:1001F0000E94AE060C9485080C940000FC018091CE
:100200008E01882311F13FB7F89482E08093E900D2
:100210002091F200822F90E01816190614F481E064
:1002200090E0882339F0289A44E640938D0140916C
:10023000F1004083222339F02091F200211103C004
:100240002BE62093E8003FBF08958FEF9FEF0895BE
:100250002FB7F89483E08093E9009091E800892F0C
:10026000807295FF04C09091F20080E4891B2FBF3B
:1002700008958091850181110DC082E080938101F4
:1002800084E080938201109284011092830181E0C6
:100290008093850181E891E008953FB7F8948091BB
:1002A0007D0190917E01A0917F01B091800126B5E2
:1002B000A89B05C02F3F19F00196A11DB11D3FBF9E
:1002C000BA2FA92F982F8827BC01CD01620F711D6D
:1002D000811D911D42E0660F771F881F991F4A9567
:1002E000D1F70895CF92DF92EF92FF920E944D01D5
:1002F0006B017C010E944D016C197D098E099F09DB
:10030000683E734081059105A8F3FF90EF90DF9060
:10031000CF90089540914E0150914F0120914C0192
:1003200030914D0142175307B4F49091E800957055
:10033000E1F39091E80092FD19C08093F100809163
:100340004E0190914F0101968F739927892B19F4D3
:100350008EEF8093E80080914E0190914F010196BD
:1003600090934F0180934E0181E0089580E00895BD
:10037000EF92FF920F931F93CF93DF93F82E192FD5
:10038000E62E042F81E0860F880F0E948A0183E009
:100390000E948A01CF2DD12FEC0EFD2EF11CCE151F
:1003A000DF05B9F007FF13C0FE0184910E948A01A6
:1003B000182F80E00E948A01812321968111EFCFBE
:1003C000DF91CF911F910F91FF90EF900895888159
:1003D000EDCF81E0F5CFDF92EF92FF920F931F9365
:1003E000CF93DF93D82E8A01EB017B01E40EF51E3B
:1003F000CE15DF0559F0D7FE12C0FE0184910E9490
:100400008A0121968111F4CF0FEF1FEFC801DF9110
:10041000CF911F910F91FF90EF90DF900895888109
:10042000EECF0F931F93CF93DF931F92CDB7DEB71D
:1004300082E0898342E450E06CEA70E080E80E9448
:10044000EB010E943901DC0112960D911C910115FE
:10045000110589F0D801ED91FC910280F381E02D26
:10046000BE016F5F7F4FC801099597FD04C0F80179
:1004700000851185ECCF89810F90DF91CF911F917D
:100480000F910895615030F02091F100FC0120831C
:100490000196F8CF289A84E680938D0108958F9273
:1004A0009F92AF92BF92CF92DF92EF92FF920F9303
:1004B0001F93CF93DF936C017B018A0180910B0125
:1004C000882309F458C080918E01882309F453C011
:1004D0008091520180FF05C08091E000826080938E
:1004E000E000E801B12C8AEFA82E93E0892E2AE3E0
:1004F000922E209711F4BB20B9F10E94280181119E
:1005000006C0AA94AA20B9F10E947201F2CF8C17FA
:100510001D0611F00CF08C2F9FB7F8948092E90023
:100520002091E80025FD02C09FBFE3CF282F30E0D7
:10053000C21BD30BF701815020F041914093F10091
:10054000FACFE20EF31EBB2021F09092E800B12C0E
:10055000EBCF8091E80085FDE7CF9092E800BB24C7
:10056000B394209709F3F3CF5D9A84E68093510109
:10057000101611063CF081E090E0F601938382832F
:1005800010E000E0C801DF91CF911F910F91FF9023
:10059000EF90DF90CF90BF90AF909F908F90089595
:1005A000CF93DF931F92CDB7DEB76983DC01ED9166
:1005B000FC910280F381E02D41E050E0BE016F5FCD
:1005C0007F4F09950F90DF91CF91089583E080933D
:1005D000E9008091F200882319F08AE38093E80013
:1005E00008950E94280190E00895CF93DF931F9211
:1005F000CDB7DEB7FC018485958597FD08C02FEF48
:100600003FEF358724870F90DF91CF910895CE017A
:1006100001960E94FE00019719F4898190E0F3CFC2
:100620008FEF9FEFF0CF0F931F93CF93DF931F9226
:10063000CDB7DEB78C01FC018485958597FF0BC093
:10064000CE0101960E94FE00019771F4898190E02D
:10065000F80195878487F801848595850F90DF914F
:10066000CF911F910F9108958FEF9FEFF1CFFC0174
:100670008485958597FD0BC09FB7F89482E08093A1
:10068000E9008091F2009FBF90E0019608959FB726
:10069000F89482E08093E9008091F2009FBF90E09F
:1006A0000895FC0101900020E9F73197AF01481B44
:1006B000590BBC018FE891E00C944F028F929F92EE
:1006C000AF92BF920F931F93CF93DF93CDB7DEB757
:1006D000A1970FB6F894DEBF0FBECDBF19A242306E
:1006E00008F44AE08E010F5D1F4F842E912CB12C2F
:1006F000A12CA50194010E945D08E62FB901CA0151
:10070000EA30F4F4E05DD801EE938D01232B242B25
:10071000252B79F790E080E0109719F0CD010E9429
:100720005103A1960FB6F894DEBF0FBECDBFDF9187
:10073000CF911F910F91BF90AF909F908F90089590
:10074000E95CE1CFCF92DF92EF92FF92CF93DF93FC
:100750006B017C016DE28FE891E00E94D002EC0118
:1007600066277727CB016C197D098E099F094AE01E
:100770000E945E038C0F9D1FDF91CF91FF90EF9041
:10078000DF90CF9008951F920F920FB60F92112411
:100790002F933F938F939F93AF93BF938091790152
:1007A00090917A01A0917B01B0917C013091780108
:1007B00023E0230F2D3758F50196A11DB11D20937D
:1007C00078018093790190937A01A0937B01B09393
:1007D0007C0180917D0190917E01A0917F01B0917B
:1007E00080010196A11DB11D80937D0190937E0132
:1007F000A0937F01B0938001BF91AF919F918F91A2
:100800003F912F910F900FBE0F901F90189526E8E3
:10081000230F0296A11DB11DD2CF1F920F920FB6CA
:100820000F9211248F939F938091E1009091E100AA
:10083000937F9093E10083FF0FC01092E90091E055
:100840009093EB001092EC0092E39093ED001092E5
:100850008E0198E09093F00082FF22C093E0909385
:10086000E9009091F200992319F09AE39093E8003F
:1008700090915101992341F09091510191509093A1
:100880005101911101C05D9890918D01992341F022
:1008900090918D01915090938D01911101C02898F4
:1008A00084FF18C08091E2008E7E81608093E20018
:1008B0008091E1008F7E8093E100809152018E7ED5
:1008C0008061809352019F918F910F900FBE0F9086
:1008D0001F90189580FFF7CF8091E2008E7E806197
:1008E0008093E2008091E1008E7E8093E100809110
:1008F00052018E7E8160E5CF1F920F920FB60F924C
:100900001124CF92DF92EF92FF920F931F932F93B8
:100910003F934F935F936F937F938F939F93AF9387
:10092000BF93EF93FF93CF93DF93CDB7DEB76C9771
:10093000DEBFCDBF1092E9008091E80083FF25C0A3
:1009400068E0CE0145960E94420282EF8093E80063
:100950008D8987FF39C09091E80090FFFCCF982FD8
:10096000907609F034C19E894F89588D2F89F88C73
:10097000911131C0803861F5809153018093F1006D
:100980001092F1008EEF8093E8006C960FB6F89409
:10099000DEBF0FBECDBFDF91CF91FF91EF91BF9131
:1009A000AF919F918F917F916F915F914F913F9107
:1009B0002F911F910F91FF90EF90DF90CF900F90AC
:1009C0000FBE0F901F9018959EEF9093E800C7CF31
:1009D0001092F100D5CF913059F48111D3CF41302D
:1009E000510581F6809153018D7F80935301CACFC9
:1009F000933049F48111C6CF4130510519F68091E9
:100A000053018260F2CF953041F48091E80080FF7D
:100A1000FCCF20682093E300B5CF963009F0A9C041
:100A20000B8D1C8D22E01092E90010924F01109264
:100A30004E01F2122EC010924D0110924C010E94F4
:100A400011021F8299E09983FA8291E09E8390EAD5
:100A500098879AEF998720914E0130914F01275F37
:100A60003F4F3C832B838D831092E90010924F01FE
:100A700010924E0110934D0100934C0149E050E05B
:100A8000BE016F5F7F4F80E00E94EB010E94110268
:100A900079CF10934D0100934C010E943901DC0184
:100AA00012960D911C910115110509F451C1D8013F
:100AB000ED91FC910480F581E02DBE016B5E7F4FCE
:100AC000C8010995009709F03EC1F801008511851C
:100AD000EACFF3E0FF120EC08F89882309F440C0EB
:100AE000823061F440E86DE080E191E00E94B8015D
:100AF000811148CF81E28093EB0047CF813029F408
:100B000040E86BE084E091E0F1CF833099F70E94F8
:100B10003901DC011296ED90FC908E010F5F1F4FA2
:100B20006801E114F10479F0D701ED91FC910680A0
:100B3000F781E02DB801C7010995080F111DF701D4
:100B4000E084F184EECFD8011C92F60101900020E0
:100B5000E9F73197BF016C197D0940E0C601C6CFA6
:100B60006EEE70E0FB01449150E080E80E94EB01E2
:100B700009CF973009F4BECF983021F481E08093FB
:100B8000F10000CF993009F0FDCE837009F0B2CFAB
:100B9000EFE1F1E081E031E096E32191222371F071
:100BA0008093E9003093EB00DF0111972C912093A3
:100BB000EC009093ED008F5F873079F78EE780939C
:100BC000EA001092EA008F8980938E01DBCE8B8D34
:100BD0009C8D1092E90010924F0110924E0190935B
:100BE0004D0180934C01898D811192C08E899D8920
:100BF000913A49F4813209F07DCF47E050E064E05A
:100C000071E080E0B3CF913209F074CF833269F4A0
:100C10008F89988DB0E0A0E080930001909301014E
:100C2000A0930201B0930301ADCE803269F48091AC
:100C3000E80082FFFCCF67E084E091E00E9442027E
:100C40008BEF8093E8009ECE823209F09BCE8F8995
:100C500080930B01EEEFFFE7859194918B3F9C4DC4
:100C600051F1E0E0F8E08091040190910501A0913C
:100C70000601B0910701803B9440A105B105F1F454
:100C800080910B0180FD1AC0EE3F8AE0F80789F5DC
:100C900087E797E79183808380916000809350017C
:100CA00088E19BE00FB6F894A895809360000FBE92
:100CB0009093600067CEEEEFFAE0D5CF808191810E
:100CC0008737974709F05ECEA895809160008861CC
:100CD000809360008091500180936000EE3F2AE095
:100CE000F20789F08091FE0A9091FF0A9183808338
:100CF00049CE808191818737980751F29093FF0AFE
:100D00008093FE0AC5CF1092FF0A1092FE0A3ACED7
:100D10000E943901DC0112960D911C9101151105FB
:100D200009F4E8CED801ED91FC910190F081E02D1D
:100D3000BE016B5E7F4FC8010995811123CEF8017A
:100D400000851185EBCF181619060CF41BCED2CEF8
:100D5000F1E0FF12BECE62EF70E004CF789484B56C
:100D6000826084BD84B5816084BD85B5826085BDA7
:100D700085B5816085BD80916E00816080936E0035
:100D80001092810080918100826080938100809127
:100D900081008160809381008091800081608093D8
:100DA00080008091910082608093910080919100F9
:100DB0008160809391008091900081608093900089
:100DC0008091C10084608093C1008091C1008260E5
:100DD0008093C1008091C10081608093C1008091A7
:100DE000C30081608093C3008091C00082608093C3
:100DF000C0008091C20081608093C20080917A001F
:100E0000846080937A0080917A00826080937A0077
:100E100080917A00816080937A0080917A00806866
:100E200080937A0010928E01109253011092520119
:100E30008091D70081608093D70080EA8093D800AA
:100E400089B5806189BD89B5826089BD09B400FE1C
:100E5000FDCF0E9472018091D8008F7C80618093C9
:100E6000D8008091E000807F8093E0008091E100D5
:100E70008E7E8093E1008DE08093E200559A209A67
:100E80005D9828988FEF9FEF90939C0180939B0132
:100E900021E331E0A5E2B1E08D919D919927FC011C
:100EA000E959FE4F4491885B9E4FFC018491882351
:100EB000C9F090E0880F991FFC01E45DFE4FC591D9
:100EC000D491FC01E25EFE4F659174919FB7F89456
:100ED0008881E42FE0958E238883EB018881E823C5
:100EE000E8839FBF2A173B07B9F640E0842E40E015
:100EF000942E90E6E92E91E0F92E2CE6C22E21E008
:100F0000D22E04E511E035E2A32E31E0B32E412CC0
:100F1000512C3201F501219131915F013327F90103
:100F2000EA57FE4F8491F901E959FE4F9491285BED
:100F30003E4FF9012491D0E0C0E0222309F42FC0F4
:100F40008823E9F081508F30D0F4E82FF0E0E555A8
:100F5000F84F0C947F0819081D08BA0711081508E6
:100F6000BF07BF07BF07200826082A082E08340835
:100F7000BF073808809180008F7780938000E22F30
:100F8000F0E0EE0FFF1FE65CFE4FA591B491EC91EF
:100F90009E2321E080E009F420E0C22FD82FF60143
:100FA000C193D1936F01F701808191818C179D07C7
:100FB000F9F0C130D10509F061C0F801808191815B
:100FC00001969183808381E391E00E94510384E341
:100FD00091E00E94510387E391E00E9451034AE0AF
:100FE000C301B2010E945E0384E391E00E945103B9
:100FF000F701C193D1937F010E5F1F4FFFEF4F1A8F
:101000005F0A6F0A7F0A86E0481651046104710482
:1010100009F080CF8114910409F46BCF0E94000085
:1010200068CF809180008F7DA8CF80918000877FDE
:10103000A4CF84B58F7784BDA2CF84B58F7DFBCF3D
:10104000809190008F778093900099CF809190004D
:101050008F7DF9CF80919000877FF5CF8091C00080
:101060008F778093C0008BCF8091C0008F7DF9CFA8
:101070008091C200877F8093C20081CF4AE0C30184
:10108000B2010E945E0387E491E00E945103ACCF5D
:10109000EFE8F1E01382128288EE93E0A0E0B0E086
:1010A00084839583A683B78380E191E091838083D5
:1010B0008FEF9FEF958784870895A1E21A2EAA1BD0
:1010C000BB1BFD010DC0AA1FBB1FEE1FFF1FA217F8
:1010D000B307E407F50720F0A21BB30BE40BF50BF5
:1010E000661F771F881F991F1A9469F7609570957E
:1010F000809590959B01AC01BD01CF010895EE0F45
:0E110000FF1F0590F491E02D0994F894FFCFA5
:10110E00FFFFFFFF00E100000000000000000000F4
:10111E00D0024F02F102E6023703F502130300C1BB
:10112E008081000000020003000400050006000795
:10113E00006F6E000D0A00627574746F6E2070750C
:0C114E00736865643A2000206F6666003C
:00000001FF
